:020000040000FA
:0400000000001F28B5
:040004000034003490
:08000800F1000308F2000A08F0
:10001000F3000B1C172883120313851E1728831265
:1000200003138712071387138312031306120B108F
:0E00300073088A0072088300F10E710E090039
:02003E0083122B
:1000400003138501831603133F30850083160313C2
:1000500020309600831203179E01831203179F011D
:1000600083120313860183160313E0308600831284
:1000700003179601831203138701831603130F30AE
:1000800087008312031388308B0098208312031398
:10009000051851208518602005196F20051A7E204B
:1000A000482883120313A20B59288312031307163F
:1000B00058288312031387168D2083120313080018
:1000C00083120313A20B68288312031307166728F1
:1000D0008312031307178D20831203130800831262
:1000E0000313A20B772883120313071676288312B3
:1000F000031387178D208312031308008312031341
:10010000A20B862883120313071685288312031374
:1001100006168D2083120313080083120313613027
:10012000A100A0010000A00B9228A10B92280800BA
:100130000301831203130718013E8718023E0719B3
:10014000043E8719083E83120313861A103E061BCD
:06015000203EA2000800A1
:02400E00F4308C
:00000001FF
