:020000040800F2
:10400000404E002077C0000815BF000817BF000809
:1040100019BF00081BBF00081DBF000800000000FA
:1040200000000000000000000000000021BF0008A8
:104030001FBF00080000000025BF000827BF0008C0
:1040400029BF00082BBF00082DBF00082FBF0008A4
:1040500031BF000833BF000835BF000837BF000874
:1040600039BF00083BBF00083DBF00083FBF000844
:1040700041BF000843BF000845BF000847BF000814
:1040800049BF00084BBF00084DBF00084FBF0008E4
:1040900053BF000857BF000859BF00085BBF0008A6
:1040A0005DBF00085FBF000861BF000863BF000874
:1040B00065BF000867BF00086BBF00086DBF000840
:1040C0006FBF000871BF000873BF000875BF00080C
:1040D00077BF000879BF00087BBF00087DBF0008DC
:1040E0007FBF000881BF000883BF000885BF0008AC
:1040F00087BF000889BF00088BBF00088DBF00087C
:104100008FBF000891BF000893BF000895BF00084B
:1041100097BF000899BF00089BBF00089DBF00081B
:104120009FBF0008A1BF0008A3BF0008A5BF0008EB
:10413000F8B500240FF234050FF238060FF24817D5
:1041400037F8141000F0D9FFDFF8D00D007AA04244
:104150000CBF0122002206EB8403615D40F22F10A8
:1041600001F0A7FA641C082CEADBF1BDC8AF967D0C
:10417000644B3219596E0000586E000054720000F2
:104180004D65000045780000466E0000536E00004B
:10419000436100002DE9FE43DFF8804D207A0FF2E5
:1041A000C001415C0FF2C006825D8D18ADB2DFF830
:1041B000702D0FF2BC03C35CA2F8443044320FF2FE
:1041C000B803C35C5B0093800FF2B403C35C5380FD
:1041D000491C4901D1800FF2B00131F8101043F6AB
:1041E000E71001F023F901F05FF9207A865D0FF204
:1041F000A809DFF8CC8D25E0B8F9140000B15EB154
:1042000008F11400B0F9301009B1072E04D0B0F94C
:10421000700010B1112E00D10427092100A801F06F
:1042200019FC082209EBC60100A801F027FC00AB2D
:104230003A46A81B0001A0F1080189B2072001F04D
:10424000D8F9761CAE4206DA207A005D86420CBFB1
:1042500001270027D0E701F04AFABDE8F783000004
:10426000070706070206020300070E141B1D23257D
:10427000D6D6D6E6D6D6D6D62D25431E3E130B036C
:104280005050504050505050E0FFFF07E007FFFFF4
:104290001FF810FC1F05FFFF592052616E67657300
:1042A00050726F626541747446697452616E6765DD
:1042B00059204F6666736574437572736F72563119
:1042C000437572736F725632486964655F566E5FEC
:1042D00054696D6542617365466974204261736516
:1042E00056696577506F7369536D706C447074686C
:1042F000437572736F725431437572736F725432B7
:10430000486964655F546E5F53796E634D6F646591
:10431000547269674D6F64654175746F20466974A6
:104320005468726573686F6C53656E7369746976EF
:10433000486964652D5472692046726571200000D9
:1043400020447574792000002056726D732000009F
:1043500020566176672000002056702D70200000E6
:1043600020566D617820000020566D696E20000097
:10437000457874205265666E45787420506F736975
:104380005361766520426D70536176652044617497
:104390005361766520427566536176652043737676
:1043A0004C6F6164204461744C6F61642042756697
:1043B0004F757420466572714F7574204475747919
:1043C00043616C205A65726F43616C52616E676520
:1043D000526573746F7265004261747465727920FE
:1043E0002DE9F04F85B0DFF8040D0290DFF8D00B17
:1043F000B0F904000299B1F908100A2202FB010485
:10440000A4B2DFF8180B017A11F80080DFF8B02BA6
:1044100002EBC80203920626B2F90420DFF8A03BA3
:1044200053F8383006FB023BDFF8782D1378012B68
:1044300040F0F68100231370B8F10A0F18BF052968
:1044400008D0C078DFF8781B01EBC000817941F01B
:1044500020018171DFF8C85AB5F9080020F0010188
:10446000ADF8041040F00100ADF80200EA5E22F061
:104470000100ADF8000042F00103DFF82C9D40F28E
:104480001F5047F6EF3A4FF6FF71DFF8207DC64622
:10449000BEF1260F5DD8DFE81EF03B0041004F0063
:1044A00055005D005D00810096009E00A600B100F1
:1044B000C100C100FE0013011A011A0144012501C7
:1044C0004401BC01BC01BC01BC01BC01BC01BC017C
:1044D0004D0155012700270027002700270027004E
:1044E000600170018B019C014FF6104100F0C0F992
:1044F00003988188C9B2484601F080FB4B463A7860
:1045000002210FF6483030F81800203080B27EE1EA
:1045100000F0ACF900F08CF9382078E100F0A6F951
:10452000CBA33878821CD2B2E0215A2001F0C1F826
:1045300000F07EF962206AE100F098F900F07CF961
:104540002C2064E13878002806BFBDF800002880E0
:104550002B805EE1B8F1040F0CBF0520062035F971
:1045600010103A78002A14BF41F0010121F0010136
:1045700025F81010B5F91E00B5F92010401A00EB0F
:10458000D070461000F04FF900F0B6FC0FF6DC11C9
:10459000615C00F0D9FC4FF6E0716FE0B5F90A00FC
:1045A0003978002914BF40F0010020F00100688133
:1045B000B5F90C003978002914BF40F0010020F053
:1045C0000100A88125E140F2FF7100F051F900F0EF
:1045D0002FF984201BE140F2FF7100F049F900F04F
:1045E0002BF9782013E1B5F90E003978002914BFB2
:1045F00040F0010020F00100E8810AE140F2FF7183
:1046000000F036F90298B0F950000FF6700106FB81
:1046100000133A7802214FF49870F8E0B8F10B0FCC
:104620000CBF0820092035F910103A78002A14BF71
:1046300041F0010121F0010125F81010B5F9260023
:10464000B5F92410441A0298B0F9380000F04FFC74
:104650000299B1F938100FF61412895C614300FB1E
:1046600001F60FF63002002E54BF0120002000900A
:104670000323314600F06AFC40F2FF7100F0F8F8C5
:1046800074A33878821CD2B200F0DEF872A33A78B4
:1046900002210820B5E0B5F910003978002914BFCF
:1046A00040F0010020F001002882B5F912003978AD
:1046B000002914BF40F0010020F001006882A8E04A
:1046C0004FF4FC6100F0D4F800F0B2F86EE04FF463
:1046D000FC6100F0CDF800F0AFF80FF6701030F884
:1046E000180094E0DFF8D808B0F9946000F09BF867
:1046F0000121009102230FF65C020FF67001615C4C
:1047000000F022FC4FF4FC6100F0B2F853A33878BB
:10471000821CD2B200F04FFC4B463A78E021F620E2
:1047200075E03878002814BFBDF80200BDF8040019
:1047300028816EE04FF61F0100F09AF800F078F83B
:10474000AC2064E0B5F902003978002914BF40F0CC
:10475000010020F0010068805BE0014600F088F86D
:10476000DFF85C08B0F91C010FF64C3106FB0013B2
:104770003A7800F01AFC3AA316E0014600F078F807
:10478000DFF8340A0121009102234268B0F90800E1
:104790000A21414300F0DAFB4B463A7802212820F7
:1047A00000F087FF0FF6A0233A78022100202EE0C8
:1047B0003878002812BF2B80BDF80000288000F058
:1047C00057F800F077FB00F0C1FB00F054F825A388
:1047D00014E03878002814BF42F0040022F00400EE
:1047E000288000F045F800F01EF800F08BFBA45D77
:1047F000614300F0AAFB00F03EF81BA33A780221C7
:10480000002000F056FF4B463A780221102000F0BD
:1048100050FFB8F1260F03D0288820F0040028802C
:1048200005B0BDE8F08F0FF60430205C01F062B9EE
:104830005B463A78E02170475B463878821CD2B2FA
:10484000E021704703A302220221002000F031BFC3
:1048500058000000440000003A0000005E00000024
:10486000464F3A00504F0000566700004FF6E07187
:10487000504600F0E2BD0FF6D813002202211020AE
:1048800000F017BF2DE9F04F83B0DFF83009008842
:10489000DFF82C190988081880B20190DFF84CA8BD
:1048A000DFF81C078088BAF808100A2202FB01070B
:1048B000FFB20024DFF86856DFF8EC98DFF8000755
:1048C00000EBC406B079810640F1CF8200F0DF0032
:1048D000B071B6F904000621DFF8E42652F834205E
:1048E00001FB002BB5F90000DFF8D888282C00F276
:1048F000BC82DFE814F04C004C004C004C004C0033
:104900004C004C00D701D701D701D701D701D701FF
:10491000D701AB01AB01AB01AB01AB01AB01420273
:104920007E028A02A4029D02AB02B2025901590121
:10493000F400F400F400F400F400F4001D01390167
:1049400029003500BA02D30020F0010000F0D2FBAC
:1049500000F0B0FA00F0FAFAFFF78DFFB7A30EE00F
:1049600020F0040000F0C6FB00F0DCFA00F0CAFA08
:10497000BE5D714300F0E9FAFFF77DFFB0A30022AE
:10498000FFF762FF4B4600220221102009E14FF69B
:10499000E07100F0B2FB022C34D100F019FB012CC5
:1049A00013D100F0C4FAA7A3022200F0EEFA00F03F
:1049B0007DFA06F1100000F0F4FA5B460022E021D7
:1049C00006F1080080B200F074FEBAF81800401C2E
:1049D0004000A88200B2DFF8E815B1F98C10491C3C
:1049E00000EB4100A883BAF82000401C4000E88397
:1049F000BAF82810491C49002984BAF930206AB154
:104A000002220BE0002CCAD100F050FA502000F036
:104A100050FE5B460022E0213820D4E76A81AA815B
:104A200000B209B2461A0FF6041017F800B0584643
:104A300001F060F800F060FA06EBD67149100FF251
:104A40002C56BE5D714300F080FAFFF7FBFE00F0CC
:104A5000A0FA7DA300220221302000F02AFE4B465E
:104A6000FFF70BFF4FF4FC6100F047FBB8F908605B
:104A7000584601F03FF800F05FFA0FF2D47300F0EF
:104A8000A2FA00F09FFA00F094FABAF8181038462B
:104A900001F05FF9384601F0F3F8E6E100F02BFB96
:104AA00001F08BF908B1DDA314E001F08EF90646A0
:104AB00040F63D70864201DBD9A30BE040F6AD50D5
:104AC000864201DBD7A305E0B6F5486F01DDD6A32A
:104AD00000E0D6A30222E02140F2271061E04FF669
:104AE000104100F00AFBB188C9B2484601F086F8CF
:104AF000212CACBF0FF260730FF2647300F017FA51
:104B00000022022100F042FA4B460022022100F06E
:104B100046FA0620DFF8A81451F8341000FB041000
:104B2000A0F1AE030022022106F1380080B238E085
:104B300040F21F5100F0E1FADFF88404B0F81C01E4
:104B4000C0B201F0F0F80FF2207300F02DFADFF898
:104B50007004B0F91C0106210FF25C7201FB002306
:104B600000F022FAC4A319E040F21F5100F0C5FA88
:104B700001F0C7F8DFF8406630890A214143C9B225
:104B8000484601F055F84B4600220221282000F04B
:104B900090FD736800F0F4F90FF2AC63002202217B
:104BA000002000F086FD60E14FF61F0100F0A5FA3D
:104BB0001B2C09D100F0BBF900F078F900F0EFF9F7
:104BC0005B46002200F0E1F9B8F95000B5F9021097
:104BD000062808D141F004006880BAF81800401C8B
:104BE0004000E88241E121F0040169800428F4DA00
:104BF000B8F958104A1C5200EA820228F2DA02225E
:104C0000DFF8C435D35CDFF8C0657678002819BFBB
:104C10007618F61A8E1B9E19CB2EA8BFCA2602DA6A
:104C2000012EB8BF0126DFF8A435D31883F82C6114
:104C3000521CB2F5957FE3DB17E100BF504F000037
:104C40005667000058000000202000004FF4FC616F
:104C500000F053FA00F024FA0F2C01D100F0B8F95B
:104C6000102C01D100F0B4F9B5F91400D449B1F910
:104C70008C1000EB4100A883B8F9086000F052F9ED
:104C800000F05AF900F012F94FF48B7000F011FDAA
:104C900000F08FF900F096F9B8F9100000B1022089
:104CA0002881E2E040F2FF7100F027FA072C03D1DF
:104CB0005B46002200F08EF9082C01D100F088F943
:104CC0000A2C10D10FF2A85300F0B8FABAF950002C
:104CD00006210FF2A81201FB0023002202214FF44B
:104CE000987000F0E6FCBAF85010C9B2BAF8480063
:104CF00000F00EFADFF8D804B0F90000801CBAF812
:104D00004810401A6884E88920F00100E881288A68
:104D100020F001002882BAF85800401CA884BAF894
:104D20006010491CE984BAF9682002B102222A8283
:104D30006A8209B200B20E1ABAF9380000F0D7F848
:104D40000121009103230FF24C12BAF938100FF22F
:104D50001C2C11F80C1000F0F7F8FFF773FD00F0B1
:104D600018F9B9A300F00CF94B46FFF786FDBAF825
:104D70003800C0B200F0DEFF77E0DFF858040088AA
:104D800046F2A811484300EBD0704010C117BAF9A1
:104D90003860092EB8BFDFF8408403DB122E07DA33
:104DA0004FF47A78A8FB002308FB0133104619461C
:104DB0000FF2286252F82620002301F02DF9BAF9EB
:104DC00050200FF2106333F81220002301F024F971
:104DD000DFF808240023994201D8904203D3034608
:104DE0000122002103E0034601220199C9B21420E7
:104DF00039E0DFF8C803008864214843019990FB3B
:104E0000F1F30122C9B215202DE000F08BF8DFF894
:104E1000D01300F057F8162025E000BF5B5C5D0062
:104E20004546470041464700414247004142430052
:104E300000F078F8EB4900F045F8182013E000F096
:104E400071F8E94900F048F817200CE000F06AF822
:104E5000E64900F041F8192005E000F063F8E44964
:104E600000F03AF81A2000F0BCF8641C292CFFF678
:104E700025ADBDE8F78F0000464F3A00314B0000EA
:104E80000000324B00000000344B00000000364BA5
:104E90000000000075530000000075530000000082
:104EA0006D530000000053200000000066A30022A4
:104EB000E0217047002000900223B9A2CA48B0F94F
:104EC0000010704709880FF2A402BA5C514300FB3E
:104ED00001F3012201217047B1F900100FF28C0299
:104EE000BA5C514300FB01F30022012170470FF22D
:104EF0002841405C00F0FEBD0121009103230FF228
:104F0000540270470021009102230FF24802B64973
:104F1000B1F900100FF2540670470000840E002013
:104F2000C40900200FF20440385C00F0E3BD0FF22A
:104F30001C1030F8146070470121009102230FF219
:104F400014020FF22801795C71434143484600F096
:104F5000DCBD00007556000000006D56000000002A
:104F60005620000000006B560000000004080204F8
:104F700008020408020404080204080204080204E7
:104F800000220221382000F094BBE021304600F0DE
:104F900090BB87A300220221082000F08ABB06F103
:104FA000200080B200F085BB00220221182000F012
:104FB00080BB80A30222E021EE2000F07ABB00003B
:104FC000180A00204B460022E021F62000F071BBB9
:104FD0005B460222E0210FF2740030F8140000F06A
:104FE00068BB2DE9F84307460C4615461E4600F0FF
:104FF00088F800F080F80FF2540030F8178006208F
:105000000FF25C3100FB0710A0F1780300220221AF
:10501000404600F04EFB364800F5A4790095032386
:1050200050F837203146FFF791FF08F12000002C9F
:1050300014BF4B460FF244230022022180B201B07C
:10504000BDE8F04300F035BB2000000038005A00F6
:105050002C0078000000000000008400780064004C
:10506000E8000000000000000000E400DA0000009A
:10507000EE000000E800E800E800E800E800E800D2
:10508000E800AC000000E800E800E800E800E80004
:10509000E800000000005000500050002701000010
:1050A00010B5544C2078C0074CBF1F214FF4FC6151
:1050B00000F023F82078C00748BF0FF2842406D4FC
:1050C0000B48B0F974100622006F02FB01040FF2C6
:1050D00098130022E021FFF7B8FB23460022E021CD
:1050E0001046BDE8104000F0E4BA00001C0A0020A1
:1050F000180A002028804FF6FF7147F6EF3000F0C5
:105100009CB90FF2801300220221E82000F0D1BAEE
:10511000F8B5394DB5F954000FF2B82131F81060E7
:105120000FF26C1302220221442000F0C2FA4BF26B
:10513000D06090FBF6F4A4B2B5F94C009C21484332
:1051400090FBF6F000F14705ADB20421284600F0CF
:10515000F7FF0B274FF6FF7600F050F87F1EFBD1CC
:1051600004212819401E80B200F0EAFF0B2700F04E
:1051700045F87F1EFBD16F1C0CE00321384600F080
:10518000DFFF00F03BF80F21384600F0D9FF00F0B8
:1051900035F87F1CBFB22819401E8742EDDBF1BDF8
:1051A00000000000F90D0020600B0020F80D002029
:1051B0003A0000005E000000340B0020C63E0020D4
:1051C000C43E0020A40A00206C0B00200000002038
:1051D0008E0E00200E48002040420F0081778E0680
:1051E000C03E0020C23E00200A48002004480020A3
:1051F000064800203D480020180A0020304600F0F4
:1052000095BF38B504460FF2A0052B4600F016F8FE
:105210009CB10E200FF2741100FB041300F00EF885
:105220004FF4FA6000F023FD2B4600220221E82013
:1052300001B0BDE8304000F03CBA31BD002202218F
:10524000E82000F036BA0000447574793A00000096
:1052500020202020202000004C6F616420000000EE
:1052600053617665200000002020202020000000EF
:10527000536D706C447074683A0000003A202D2D14
:105280002D2D200020202020202020202020200044
:10529000494A4A4A4A4A4A4A4A4A4A4A4A4A4A4A6F
:1052A0004A4A4A4B000000002020202020202020D5
:1052B00020202020200000003130487A00003230C9
:1052C000487A00003530487A0000313030487A00A2
:1052D000323030487A00353030487A00314B487AE5
:1052E0002000324B487A0000354B487A00003130BC
:1052F0004B487A0032304B487A0035304B487A00C0
:105300002E314D487A002E324D487A002E354D48C8
:105310007A00314D487A00000101020202030303C2
:10532000040403030404040505050606020203033E
:105330000304040405050303040404050505060627
:1053400053544F5000004E4F4E4500004155544FAE
:1053500000004E4F524D000053494E474C00000094
:105360004672716E000044757479000056726D7358
:10537000000056617667000056705F700000566D41
:1053800061780000566D696E0000000046696C652A
:1053900020522F57204F6B21000046696C65205624
:1053A00065722045727200004E6F7420466F756EF4
:1053B00064212020000046696C6520522F5720454B
:1053C000727200004469736B20427573792120204A
:1053D0000000000000040008001000180100000098
:1053E00002000000050000000A0000001400000098
:1053F0003200000064000000C8000000F40100005A
:105400000100000002000000050000000A0000008A
:10541000140000003200000064000000C80000001A
:10542000F40100000100000002000000DFF8F82392
:10543000A2F8120AA2F8141A7047DFF8F02390803D
:10544000D180704770B5DFF8E8130B88DFF8D823F8
:10545000B2F90A4A93FBF4F504FB15330B804B8831
:1054600002F60A24B4F9044093FBF4F504FB153367
:105470004B804B880D88261104EBD66464111E09FD
:1054800004FB0564A4B203F00F0502EB44020124FF
:10549000AC400028B2F8840314BF2043A043A2F814
:1054A0008403581C488070BD2DE9F047DE4E4FF450
:1054B000C86106F5617000F0CDFADD4D002028804E
:1054C000032068804FF0000806F60A20B0F9044077
:1054D00003E000F058F808F1010804EBD47047101D
:1054E000A7F1060A1FFA88F8D045F2DB01202880D0
:1054F00000F047F801202880FC1E6C80FFF7A2FF17
:105500000220288001206880FFF79CFF022028806D
:10551000A7F10209A5F8029000F035F803202880D1
:10552000B6F90A6A08E0002000F02CF8781E00F0B6
:1055300029F82888401C28802888B11E8842F2DB80
:10554000F71E2F8001206880FFF77CFF2F80A5F8D1
:10555000029000F018F8B71E2F8000F012F82F808C
:105560006C8000F010F8701E2880032068800025F1
:1055700002E000F008F86D1CADB25545F9DBBDE85E
:10558000F0870220688001205CE72DE9F04704469F
:1055900089460026A64F0FF2BC28A00702D500F0CE
:1055A00080F804E03146484600F0CCFD054660072F
:1055B00006D5F0074CBF4AF6AA2045F255500540E3
:1055C0004FF00E0A680704F0010048BF80F00100A8
:1055D000FFF738FF6D08BAF1010AF3D13888401C93
:1055E000388078880E387880761C082ED5D3BDE8B0
:1055F000F0872DE9F0410C4690461E468C4F3880CE
:105600007C800E2508F00100FFF71CFF6D1EF9D10C
:105610003888401C38807C8004E016F8011B404626
:10562000FFF7B3FF30780028F7D1BDE8F0812DE90E
:10563000F0470446894600267C4F0FF21828A00741
:1056400002D500F02EF804E03146484600F07AFD1D
:105650000546600706D5F0074CBF4AF6AA2045F27A
:10566000555005407988388800F06AFD4FF00E0AE1
:10567000F888B9886A0703D5E20704D5084602E02E
:10568000E20758BF084600F051FD6D08BAF1010A63
:10569000EED13888401C3880761C082ECFD3BDE868
:1056A000F08706EBC90008EB4000A0F58060058894
:1056B0007047F8B514461D465C4E3080718000F08E
:1056C0003FFD0E27E0074CBFF088B08800F02EFDAC
:1056D0007F1EF7D13088401C308004E015F8011B94
:1056E0002046FFF7A4FF28780028F7D1F1BD5148E4
:1056F000017841F0020101704B4800210AE04D4859
:10570000017801F0F9010170080748BF00F005B801
:1057100045480121A0F8101A704738B5424D05F6EA
:105720000824282060806020E08040F21F51002083
:10573000FFF77CFEFFF7B8FE0FF2001300221A21DC
:105740000420FFF756FF0FF2FC0300220A21042079
:10575000FFF74FFF00202081B5F9081A36480429C9
:1057600005DBB4F902205218B2F5967F03DDB0F9DB
:1057700000205242028002885118A5F8081AB4F994
:105780000410072905DBB4F906205218B2F5C97FC9
:1057900003DBB0F902205242428040884018A080CA
:1057A00031BD38B504462348017841F00401017049
:1057B0001D4800F60825802169806021E98032219A
:1057C000A0F8081AC820A8804FF6FF7143F6E7102A
:1057D000FFF72CFEFFF768FE234600221A2108205F
:1057E000FFF707FF0DA302220A210820FFF701FFA0
:1057F0000FF2580300220A211820FFF7FAFE08A32F
:1058000002220A215020FFF7F4FE06A300220A21FB
:105810006020FFF7EEFE0020288131BD50510000CE
:105820004D4E00003A4E6F0000000020104800204E
:10583000A80E0020B80E0020AC0E002044656D6F4D
:10584000000000006F6E6C79000000003A5965732B
:1058500000000000F87F0840E85F08520852085036
:105860000840F87FC00F400878780840084008409A
:1058700008400840084008400840084008400840E8
:1058800008400840084008400840084008400840D8
:105890000840F87F10003000500090011003100CF9
:1058A000F03F0000C00F400878780840E85FE85FEC
:1058B000E85FE85FE85FE85FE85FE85FE85FE85FB0
:1058C000E85FE85FE85FE85FE85FE85FE85FE85FA0
:1058D0000840F87F100110021006F03F0026002259
:1058E00000210000F07FF07F000180000001000235
:1058F0000004000800040002000180000001000212
:105900000004000800040002000180000001000201
:10591000F07FF07F002200218021F03F90011001F4
:105920001002000000000000F03F0840E85F084857
:105930000844C84308440848E85F0840F03F0000B6
:1059400000000000300F9019F0100010F0109019B6
:10595000300F000000000000F03F0840E85FC84F33
:10596000884708430840E85F0840E85F0840F03F88
:105970000000000000000000F03F0840084308431A
:105980000843E85FE85F0843084308430840F03FE6
:105990000000000000000000F03F084008430843FA
:1059A0000843084308430843084308430840F03FBE
:1059B0000000000000000000F03F08400843884756
:1059C000C84FE85F08438847C84FE85F0840F03F8A
:1059D000000000000000400480020001800240043A
:1059E0000000000000000000F03F0840E85FC84FE2
:1059F00088470843E85FC84F884708430840F03F9E
:105A000000000000C00F4008787808400840884F28
:105A1000484048404840884F08404844484A484A1F
:105A2000484A88490840C84F484A484A484A884531
:105A30000840F87F000020042004201F20042004D8
:105A40000000000000000000000000000000000056
:105A500000000000002200F085BB50F8041B61B17B
:105A600050F8042BD30744BFA9F101039A1800236F
:105A700042F8043B091FFAD1EFE7704762B38B0786
:105A800008D0521E11F8013B00F8013B00F02480C1
:105A90008B07F6D1830740F0208000BF103A07D370
:105AA00030B4B1E83810103AA0E83810F9D230BC60
:105AB000530724BFB1E80810A0E8081044BF51F80C
:105AC000043B40F8043BD20724BF31F8022B20F8F6
:105AD000022B44BF0B7803707047083A07D3B1E834
:105AE0000810083A40F8043B40F804CBF7D25307BB
:105AF000E4E70000012101E00A2251430246501E62
:105B0000D2B2002AF8D1084670472DE9F047814605
:105B10000C4692461E4608980023274605220A2175
:105B2000A0B91CB9202009F8010B11E0012C03DBFE
:105B30002B2009F8010B09E0002C09D52D2009F8CC
:105B4000010B644204E097FBF1F75B1C0A2FFADAC1
:105B50001BB2032793FBF7F000EB4000181A022852
:105B600004BF022E03262046002306E090FBF1F03E
:105B70005B1C1BB29E42B8BF4A430A28F6DAB34206
:105B8000A8BF14192046002502E090FBF1F06D1C1F
:105B90000A28FADA2DB295FBF7F807E0E8B2FFF72A
:105BA000A9FFB4FBF0F100FB11446D1E3046461E08
:105BB000C0B1E8B2FFF79EFFB4FBF0F0303009F857
:105BC000010B76B24EB12DB295FBF7F000EB400021
:105BD000281A04BF2E2009F8010B2DB2002DDDD5A7
:105BE0000024E2E7062000FB08A0017809F8011B69
:105BF00010F8011B0029F8D1BDE8F08710B5642228
:105C000091FBF2F303F13004047002FB1311C9B2EB
:105C10000A2291FBF2F303F1300400F8014F02FB7A
:105C20001311303100F8011F002100F8011F10BDD1
:105C300010B5642291FBF2F302FB1311C9B20A22E0
:105C400091FBF2F303F130040470E8E710B50400AF
:105C500001D1002010BDA008FFF7F8FF4000401C54
:105C600000FB00F18C4238BF401E80B210BD0349DA
:105C7000088008880028FCD170470000020E002030
:105C8000DFF83823DFF8381303280FD9001F022864
:105C900015D9C01E022817D9C01E032819D9001F04
:105CA000022819D9C01E02281DD921E00120086050
:105CB0002020106010201060022008607047012032
:105CC0000860202010600BE0012048602020106058
:105CD00006E00120086001E00120486020205060BB
:105CE000102010600AE0012008602020106003E00E
:105CF0000120486020205060102050600220486041
:105D00007047B048B0F91C11AF4A32F81110491C65
:105D1000B0F92401C0F10A0048430A2190FBF1F0D8
:105D2000AA4908607047AA49AA4A32F810200A60B6
:105D3000A54A05E0A849A94A32F810200A60A84AF5
:105D400032F810004860401C00EBD0704010C86072
:105D50007047A44A32F81020C1F16401514349024E
:105D6000A14A32F81000C822504391FBF0F000F530
:105D700080609E490860704770B59D4D914E9D4C66
:105D8000B6F9540034F81010284600F005FAB08F28
:105D90002880994800210160A91CC160B6F95410FF
:105DA00034F811104160016841F00101016070BDDB
:105DB00092490968401A80B270479148006810F40F
:105DC000806018BF0120C0B270478F484169090345
:105DD000090C826901F10A03934226BFA1F10A036B
:105DE0009A428161806980B2704710B5874800216E
:105DF0000160854CA089401CA081E08910B1E08938
:105E0000401EE0816089002840D06089401E60818A
:105E10006089142190FBF1F201FB1200E0B9607877
:105E200010B16078401E6070207810B12078401E5C
:105E3000207000F039F800B1E070208918B1208995
:105E4000401E208108E00C2020812179481E8041DD
:105E5000C00F2071012060716089642190FBF1F214
:105E600001FB1200F8B960696949098840F23252B1
:105E7000514300EBA121A1EB10106061514890F853
:105E8000461141F0200180F8461110BD4FF47A70A0
:105E90006081208A002804BFBDE81040FFF72FBCB6
:105EA000208A401E208210BDF0B500210020594AF2
:105EB0001368DB43DB0648BF0121524B1C68E443F7
:105EC000240548BF41F002011468E443640648BF5A
:105ED00041F004011B68DB439B0548BF41F008010A
:105EE0001368DB439B0648BF41F010011368DB4396
:105EF0001B0648BF41F020011268D243120748BF79
:105F000041F0400101F0200301F0100401F0080508
:105F100001F002063C4FBA78D243114215D032222A
:105F20007A7003223A70CA0744BF0122BA710EB1D7
:105F30000222FA714A0748BF032005B1042004B1C8
:105F40000520002B38D0062036E0BA78114227D041
:105F50007A78192A0FD23A786AB94A0748BF0320DB
:105F600005B1042004B1052003B1062011F03C0264
:105F70001CBF03223A707A78002A04BF3A78002ABC
:105F80001AD1CA0702D508200022BA7116B1092019
:105F90000022FA7111F003020ED032223A700BE0A7
:105FA000BA7912B1B8790022BA71FA7912B1F879D6
:105FB0000022FA7132227A70B970F0BD10100140DF
:105FC000100C0140180A0020C4B500083408004035
:105FD00028080040A4B50008282C01402CB5000872
:105FE00054B50008180D0020F00C002040000040BF
:105FF000BC0E0020D4530008080002400C000240F0
:10600000080C014008140140F40D00201004004069
:106010004E240140080801401B4213D1094236D1E9
:106020002AB18446B0FBF2F002FB10C2704700F0C8
:10603000B7B8FCD30022002370470B0002000021F8
:1060400000207047904271EB030CF6D370B5B1FAA3
:1060500081F4B3FA83F52C1BA340C4F1200532FA76
:1060600005F63343A2405FF00046E64002E05B08DD
:106070005FEA3202841A71EB030524BF20462946E9
:106080007641F4D302000B003000002170BD012ADC
:10609000CFD970B5140C20D0B1FA81F4B2FA82F5E0
:1060A000C4F120046419B4F12006D6D3B2405FF0E5
:1060B0000044F440002502E052085FEA3303C61AA8
:1060C00071EB020E24BF3046714664416D41F3D33B
:1060D00002000B002000290070BD0C46B1FBF2F15C
:1060E00002FB11452D0445EA1045B5FBF2F402FB15
:1060F000145580B240EA0545B5FBF2F002FB1052A0
:1061000040EA044070BD0000FAF722B8FAF722B85E
:10611000FAF722B8FAF722B8FAF722B8FAF722B853
:10612000FAF722B8FAF722B8FAF722B8FAF722B843
:10613000FAF722B8FAF722B8FAF722B8FAF722B833
:10614000FAF722B8FAF722B8FAF722B8FAF722B823
:10615000FAF722B8FAF722B8FAF722B8FAF722B813
:106160007BDF704700B500BF130096469446103998
:1061700028BFA0E80C50FAD85FEA417C28BF0CC0C9
:1061800048BF40F8042BC90728BF20F8022B48BF9E
:1061900000F8012B00BD0000002200F007B800004D
:1061A0007047000062F30F2262F31F42401810F0A4
:1061B000030308D0C91A1FD3DB0748BF00F8012D1D
:1061C00028BF20F8022D130030B4144615461039AC
:1061D00028BF20E93C00FAD8490728BF20E90C0075
:1061E00048BF40F8042D890028BF20F8022D48BF81
:1061F00000F8012D30BC7047C91818BF00F8012DF8
:10620000CB0728BF00F8012D704700004FF6FF7143
:10621000884201D1002070474FF6E07101EA000288
:106220008A4201D10120704700F40441B1F5044FC6
:1062300001D1022070474105490D40F2FF729142A1
:1062400001D10320704700F48261B1F5826F01D162
:10625000042070474FF61F0101EA00028A4201D173
:106260000520704748F2100101EA00028A4201D17C
:106270000620704700F4FC61B1F5FC6F01D10720E6
:10628000704747F6EF3101EA00028A4201D1092046
:10629000704740F21F5101EA00028A4201D10A20F0
:1062A00070474FF6104101EA00028A4201D10B20EB
:1062B000704700F01F001F2801D10C2070470D20EF
:1062C000704710B582B00C46C1B200A8FFF796FC2B
:1062D0009DF8000020719DF8010060719DF802009A
:1062E000A07113BD70B59CB0054603A80FF6C4316C
:1062F0001CC91CC000F04DF803A92846FFF7E1FFB8
:10630000DFF8505B287801282FD1DFF84C0B06A965
:1063100081600DA9C16000F0ACF950BB00F03DFAFE
:10632000002834D101202070002060704FF4967254
:10633000DFF8281BA01CFFF7A1FBDFF8246BB08857
:10634000A4F82E01B089A4F830012878012812D1D0
:1063500000F021FAD8B9B6F9F4006328BCBF401C9C
:10636000A6F8F40000201CB070BD00F00EFA002862
:10637000D8D00420F7E700F004FA40B900AB01AA36
:106380004FF40071204600F077FF0028E3D003208F
:10639000E9E7DFF8D04A4FF400712046FFF75ABB17
:1063A00030B59DB005A90FF6183200F0F8FADFF805
:1063B000B45A00F055F946D10FAB0022294600200F
:1063C00000F099FF08B101203BE008A800902B469F
:1063D00000F0D7FA08B1022033E04FF400700090CB
:1063E00001AB2A46DFF8801A08A801F03CFCC0BBCC
:1063F0004FF49672A91CDFF8740AFFF73FFBDFF831
:10640000604AB5F92E01A080201DB5F93011018137
:10641000817841F020018170817A41F02001817200
:1064200094F8DE0040F0200084F8DE00FEF72AFA3F
:1064300004F2DE00B0F92E106329BCBF491CC185EF
:1064400000201DB030BD02AB03AA05A9284600F00C
:10645000B3FE0028F5D103A9284600F006FE002867
:10646000C6D00320EDE72DE9F04F9BB0064603A808
:106470000FF658211CC91CC000240025DFF8F009C4
:106480000078052807D1FFF73AF9DFF8E819DFF8B7
:10649000CC0901F0D5FD03A93046FFF712FFDFF864
:1064A000C46900F0DDF85FD1DFF8AC0903210170A9
:1064B00000F0DBF800285FD100F06FF900283CD134
:1064C00036220FF6C4213046FFF7E8FA00200FF617
:1064D000982131F8102006EB8003170A07F0F8071F
:1064E00083F8367003F23603D70807F0FC075F70B5
:1064F000D2009A70DC70401C1028EADB762700F08E
:10650000AFF8A0463AD14FF0000900F09BF800F038
:106510009FF882465846FFF779FE83465046FFF7BC
:1065200075FE00EB0B10B8557F1C3FB2B7F5007F2E
:106530000DDB002700F02FF9002864D115B900F019
:106540007CF8641C6D1CADB2022D28BF002509F13A
:1065500002090FFA89F0B0F5A07FD6DB08F1010837
:10656000B8F1F00F3BDACEE700AB01AA03A9304641
:1065700000F054FE0028A3D004205BE04FF0000997
:1065800000F060F800F064F882465846FFF73EFEDF
:1065900083465046FFF73AFE00EB0B10B8557F1CC0
:1065A0003FB2B7F5007F0EDB002701A9304600F0AF
:1065B00076FD40BB15B900F040F8641C6D1CADB20F
:1065C000022D28BF002509F102090FFA89F0B0F564
:1065D000A07FD5DB08F10108B8F1F00FCEDB2FB1B9
:1065E00000F03EF811D100F0D6F8A0B9DFF8640849
:1065F0000078012812D000AB01AA4FF418413046B0
:1066000000F03AFE50B1032014E001A9304600F03A
:1066100046FD0028EAD0FFF76AF8F4E7DFF85008F3
:106620000078052805D1FFF762F8DFF84C080A2149
:10663000018000201BB0BDE8F08FC4F341020221AD
:10664000A820CCE31FFA88F11FFA89F0FFF76CBD90
:1066500083461FFA88F109F1010080B2FFF764BD9B
:10666000DFF8F0070078012870470DA9C16006A97E
:10667000816003A941600120EDE22DE9F0419CB069
:1066800003A90FF6540238CA38C10026002703A90F
:10669000FFF717FEFFF77DFEDFF8B85728780128CF
:1066A0001BD1DFF8B407FFF7E0FFD0B900F075F8B1
:1066B000002864D1DFF8C4874FF4007270024008EC
:1066C00008EB4000011D2046FFF7D8F92878012883
:1066D00009D100F060F850B151E000F056F8002800
:1066E000E8D004203CE000F04CF8002847D1C7F384
:1066F000410200F0A8FA7F1C761C102EDAD3FFF7B7
:106700004AFEB8F800002080B8F802006080DFF888
:1067100050078188A1808189E180B0F854002081F0
:106720002822DFF85C1704F10A00FFF7A7F904F24A
:1067300032000021DFF84C2700F002FBFCD30026DA
:10674000DFF8441731F8162020F8022B761C142E9F
:10675000F8D32878012806D100F01DF878B9002078
:106760001CB0BDE8F08100F00CF840B900AB01AA04
:106770004FF40851204600F07FFD0028EFD00320A1
:10678000EEE701A9204600F08ABC00AB01AA03A9EC
:10679000204600F043BD03205DE202205BE210B51D
:1067A000DFF8C44600202080DFF8D0066188018031
:1067B000A1884180DFF8A806B4F906108180B4F9F9
:1067C00008108181B4F90A10A0F85410282204F1AD
:1067D0000C01DFF8AC06FFF751F904F13400002199
:1067E000DFF8A02630F8023B22F81130491C1429AA
:1067F000F8DB0021DFF8902630F8023B22F8113058
:10680000491C1429F8DB10BD2DE9F0479EB005A9FD
:106810000FF2D06200F0C3F8DFF84846DFF83466C4
:106820003078012810D10FAB00222146002000F063
:1068300062FD08B1012099E008A80090234600F00D
:10684000A0F848B1022091E002AB03AA05A92046B6
:1068500000F0B2FC0028F6D10027DFF82056DFF860
:1068600008963078012803D100F090F830B186E026
:1068700003A9204600F0F9FB0028F8D14FF400727C
:1068800021467802400805EB4000001DFFF7F6F8AE
:106890007F1C102FE5D3307801286AD100F076F8FC
:1068A00000286CD14AF65520A9F800002888A9F8DC
:1068B00002006888A9F80400DFF8A465B088A9F888
:1068C0000600371D3889A9F80800B6F85400A9F861
:1068D0000A00DFF8AC852822414609F10C00FFF7D9
:1068E000CDF809F134000021DFF898A53AF811201D
:1068F00020F8022B491C1429F8D30021DFF88895D1
:1069000039F8112020F8022B491C1429F8D32088CB
:10691000288060886880B4F90400B080B4F906006B
:106920003881B4F90800A6F85400282204F10A01BD
:106930004046FFF7A3F804F23200002130F8022BA2
:106940002AF81120491C1429F8D3002730F8021B1B
:1069500029F817107F1C142FF8D3DFF830050178C1
:1069600041F001010170FEF79BFB00201EB0BDE865
:10697000F08703A9204600F078FB002892D003207E
:10698000F4E7012205A90FA801F021B84FF4007027
:10699000009001AB2246494608A801F064B938CA04
:1069A00038C105A98DE4F0B500230624DFF8B05402
:1069B000B5F90420DFF8D86404FB026603E016F89A
:1069C000017B1F5413465A1CDBB23778002FF6D1D7
:1069D0002A261E54B5F90C30DFF8B85404FB0353D3
:1069E00003E013F8015B15542246541CD2B21D7803
:1069F000002DF6D12C2313541018002242700C7075
:106A0000F0BD2DE9F04F9FB006A90FF2E44238CA5D
:106A100038C14FF0000ADFF848148A8889890A23B0
:106A200003FB0124E4B206A9FFF74BFCDFF8345462
:106A3000DFF820643078012811D1DFF81C0410A998
:106A4000C16009A9816006A94160012000F003F935
:106A500000280BD1FFF7A1FE00285AD108E005ABB2
:106A600002AA06A9284600F0D9FB002840F0DD80E4
:106A70000FF2884006C806C5083D00A905F10800C8
:106A8000FFF791FF9DF800000830ACA142190B7888
:106A900013704B78537000F1020B0227DFF8E48388
:106AA000DFF8DC9339F9141038F81420DFF8CC3310
:106AB00033F81730C3F500635A43DFF8CC3333F8AB
:106AC000143092FBF3F25118C9B20819012803DB04
:106AD000C92802DBC72000E000208DF804009DF8E3
:106AE000041004A8FFF78AF800208DF800009DF834
:106AF000000004A9405C00B30BF805000BF1010B8A
:106B0000BBF5007F10D33078012803D1FFF743FE97
:106B100020B190E000F09BF80028FAD100F091F845
:106B20000AF1010A4FF0000B9DF80000401C8DF89F
:106B300000009DF800000328D9D32C200BF8050095
:106B40000BF1010BBBF5007F11D33078012804D184
:106B5000FFF721FE00286ED103E000F078F800284E
:106B600069D100F06EF80AF1010A4FF0000B0D2018
:106B70000BF805000BF1010BBBF5007F11D330784A
:106B8000012804D1FFF707FE002854D103E000F0EC
:106B90005EF800284FD100F054F80AF1010A4FF0D6
:106BA000000B0A200BF805000BF1010BBBF5007F71
:106BB00011D33078012804D1FFF7EDFD00283AD138
:106BC00003E000F044F8002835D100F03AF80AF16B
:106BD000010A4FF0000B7F1CB7F5805FFFF462AF36
:106BE000BBF1000F16D00D200BF805000BF10100D2
:106BF0000A214155421CC2F500715019FFF7CCFA29
:106C00003078012813D1FFF7C6FDA0B900F019F8BC
:106C10000AF1010A307801280FD005AB02AA4FEA29
:106C20004A21284600F028FB38B1042006E000F095
:106C30000EF80028EAD0032000E000201FB0BDE8D5
:106C4000F08FCAF3410202214FF48470C7E002A919
:106C5000284600F024BA10B57F4C2070FFF780FA68
:106C6000207810BD30B583B07B4DEC68A8687D49B5
:106C70002A78012A0DD01AD3032A01D00FD337BDA9
:106C80004FF40072009201AB0A46774901F0A6F872
:106C90000CE023460022002000F02DFB06E00090CF
:106CA0000B4602226968204600F091FE287037BD2D
:106CB000F8B501F04BFC784C204601F053FC064639
:106CC000042836D1674D4FF440702880684800781A
:106CD00068806E480078A88005F206000021604AAE
:106CE00002EBC1039B8820F8023B491C2829F7DBF3
:106CF00000216A4A8B5C20F8023B491C0829F9DB19
:106D000000215F4A00F01CF8FCDB00215D4A00F026
:106D100017F8FCDB4AF655210180002735F8021BE5
:106D2000E01901F03DFC0646042802D1BF1CFF2FEC
:106D3000F4DD01F011FC3046F2BD00000D0A000048
:106D400032F8113020F8023B491C1429704754488E
:106D500043498A8F028000228A87524A12884AF663
:106D600055239A4200D0704770B54B4B1A88B2F544
:106D7000407F33D13E4C5A882270484A2478A45C24
:106D800001EBC404A57945F02005A57103F20603C3
:106D9000002401EBC40533F9026BAE80641C282C7F
:106DA000F7D3002433F8025BA554641C082CF9D3F4
:106DB0000022334C33F8025B24F81250521C142A80
:106DC000F8D300222F4C33F8025B24F81250521CE7
:106DD000142AF8D38A8F02800020888770BD2DE99D
:106DE000F0470C4692460FF22013002202214FF486
:106DF0008470FEF75EFC00262B4F0FF214180B2058
:106E000000FB0A6038F810900025311989B205F5A9
:106E1000887080B2FFF794F949FA05F0C0074CBFBB
:106E20004FF4FC603888FFF781F96D1C0B2DECDB0B
:106E3000761C0B2EE3DBBDE8F08700B514221B495E
:106E40000F48FEF71BFE142219490E485DF804EBAB
:106E5000FEF714BEAC470020F447002000000020DD
:106E6000180A002000410020004300206C0B002085
:106E70008C0E0020C4090020040E0020BC0E00204F
:106E8000C80C0020F00C0020400D00203D480020E0
:106E9000ECB3000804B6000800FC0108840E0020D2
:106EA000F2470020B6FC01081448002064B4000832
:106EB0008CB4000846494C45202020204441540011
:106EC00046494C452020202044415400494D475F0D
:106ED00020202020424D5000444154415F2020207A
:106EE000425546004441544120202020425546004E
:106EF00044415441202020204353560054524143E2
:106F00004B20202000000000202020200000000056
:106F100000000000000000007000FF03700000008F
:106F200000000000000000000200040008007000E3
:106F300070007000800000010002000020002000AE
:106F40002000200070007000700020002000200051
:106F5000200000000002000180007000700070003E
:106F60000800040002000000FFFFE0FF0084FF07AC
:106F700010041FF81080E0071004EF7B1F0510FCC1
:106F80001F000000E427E739424D7696000000001C
:106F90000000760000002800000040010000F00022
:106FA00000000100040000000000820B0000120B32
:106FB0000000120B000000000000000000000000B4
:106FC0002DE9F04104460D4690460027144E00205E
:106FD000307042462946204601F09CFB3846471C4B
:106FE000C0B2072801D3012002E030780028EED19A
:106FF000BDE8F081F8B504460D460026084F002094
:1070000038702946204601F041FB3046461CC0B28C
:10701000072801D30120F2BD38780028EFD1F2BD56
:107020003C48002010B582B00446208810EB500187
:1070300001F58051608000222280801E40F6FE62B1
:1070400080B2904204D2022200A8FFF7B9FF08B133
:10705000012016BDA078C007BDF800004EBF000992
:107060000005000D2080002016BD70B500F03FF82F
:107070004FF48072314600F0CFF840B94FF480727F
:1070800006F5807104F58070FFF79AFF08B10120C2
:1070900070BD2846FFF7C6FF00B1022070BD70B575
:1070A00000F025F8314600F0E5F8E0B904F5807409
:1070B00006F5807100F0DEF8A8B92846FFF7B2FFA8
:1070C00008B1022070BD288878B9688828802946D0
:1070D000204600F013F808B1032070BD2946204671
:1070E00000F033F808B1012070BD002070BD0446E7
:1070F0000D462888400200F5F846704710B582B06A
:107100000C4620886080002020802088022210EB1E
:10711000500000F5805100A8FFF752FF08B1012090
:1071200016BD2088C107BDF800104EBF090909052A
:10713000090D11B96188884205D1401C208080B2B8
:10714000B0F5706FE1D3002016BD2DE9F041044683
:107150004D880E8805EBD57005EB600080B200F419
:107160007F4101F58058C7B24FF48172414600F06B
:1071700053F8F0B93819E90707D5395D01F00F0167
:1071800001EB06113955311107E03E55417801F008
:10719000F001321202F00F0251184170414600F026
:1071A00069F830B908F5807104F58070FFF722FFA7
:1071B00000B10120BDE8F081F8B504460D46164641
:1071C0001F46002030804FF4804038604FF48072BA
:1071D000396800F021F808B10120F2BD00210A1839
:1071E000125DBAB14B5D9A4209D10A2904D1001946
:1071F000408B30800020F2BD491C0B29EFDB396841
:10720000203139602030FF28E8DDB1F5004FDDD3B3
:107210000320F2BD0420F2BD2046D1E62DE9F04165
:1072200004460D4690461F46FFF7C6FF04281FD1AF
:1072300041462046FFF762FF08B1032018E0386896
:1072400000F0FF064FF48072811BFFF7E5FF70B975
:107250008119425D0A55401C0B28F9DB3019B8F83A
:10726000001041833868811B00F004F800B1012050
:10727000BDE8F0812046BDE670B504460D461146D6
:107280001E4640F6FF7008802046FFF75EFF4FF471
:1072900080723068010A0902FFF7BEFFD0B930786A
:1072A00000192021C17230780019C5613068010AC7
:1072B0000902FFF7DFFF68B900252E024FF4807244
:1072C00006F58051FFF7A8FF20B906F52051FFF71A
:1072D000D1FF08B1012070BD6D1C0C2DEDDB70BD20
:1072E00080B5084611464FF40072490201F0C1FA18
:1072F00000B1012002BDF8B50D4616461C462070AF
:1073000026614FF400730020FFF7EAFF10B14FF041
:10731000FF30F2BD05F20B07E87A797840EA0120E8
:10732000A086B8782075F878397940EA0120E082A3
:10733000387A797A50EA0120A0610AD1787DB97D46
:1073400040EA0120F97D40EA0140397E40EA0160CF
:10735000A061F87A397B50EA0120E0610ED1787E95
:10736000B97E40EA0120F97E40EA0140397F40EAD7
:107370000160E0610B2205F1470102E00B2205F1FB
:107380002B01A01CFEF77AFB00206073B879F97915
:1073900040EA01202084A18E490AE28A92194A43D8
:1073A000A262E369594302EB410138B14001021284
:1073B00000EBD25001EB602020630DE0216305F16A
:1073C0002C0095F82C10427841EA0221827841EA9B
:1073D0000241C07841EA0061E162A069216B401A74
:1073E000217DB0FBF1F0606240F6F571884238BF54
:1073F000002005D34FF6F571884234BF01200220EA
:1074000060700020F2BD2DE9FC4704460D4616468B
:107410009A466078DFF8D88B10BB0AEB5A0900F067
:1074200065F80098A16A0F183068874203D000F011
:1074300058F890B9376000F059F8019A50196178FE
:1074400099BB0AF0010A40F2FF118A4221D195F856
:10745000FF917F1C00F045F870B10020306009E01A
:10746000012808BF4FEA4A09D9D0022808BF4FEACD
:107470008A09D4D0404632E037602878BAF1000F4C
:1074800007BF00F00F0049EA0029000240EA19197D
:1074900024E04078515DBAF1000F03D0000240EAC9
:1074A00011191BE000F00F0003E0012904D1515D28
:1074B000407841EA002911E002290ED1515D42785D
:1074C00041EA0221827841EA0241C07841EA006043
:1074D0004FEA00194FEA191900E0C1464846BDE8D5
:1074E000F68701233A4629462078F9E64FF40072E0
:1074F000494600A801F022BB2DE9F04F83B00446B5
:107500000D4616469A4660780C9FA0B90AEB5A08B9
:107510003F053F0D00F08FF80098A16A01EB0009CC
:107520003068814516D001234A4600F081F878B1D1
:107530000020306078E0012803D14FEA4A08BFB24A
:10754000E8E7022870D14FEA8A083F013F09E1E7E6
:10755000C6F8009000F06FF8019B58196178002977
:1075600046D11AF0010A18BF3F014FEA172B07F066
:10757000F00140F2FF12934229D1BAF1000F07D077
:1075800095F8FF0100F00F00084385F8FF0101E0C6
:1075900085F8FF7100F05DF818B900F052F801F0BD
:1075A00045F9002842D109F101023260012300F0BF
:1075B0003FF848B9BAF1000F03BF28786BF3030016
:1075C000287085F800B025E0002131602EE0BAF186
:1075D000000F07D05A5D02F00F021143595580F891
:1075E00001B017E05F5541786BF30301417011E082
:1075F0003A0A012902D15F5542700BE0022913D1EA
:107600005F554270390C8170C17801F0F00151EA88
:107610001761C17000F01DF840B900F012F803B016
:10762000BDE8F04F01F002B94FF0FF30BDE8FE8F2A
:107630002946207854E64FF40072414600A801F034
:107640007DBA4FF400723068E1690818410228469B
:1076500070474FF4007230684102284601F0E6B8E6
:1076600070B504460D46264620220B21FEF79AFDF2
:107670000020E07204E015F8010B203806F8010B39
:10768000287890B12F2810D0311B0B290DDAA0F1EA
:107690006101C9B21A29EED32E2803D16D1C04F161
:1076A0000806EDE715F8010BE8E7204670BD70B558
:1076B00082B004460D4600200090022600E0761CB1
:1076C000606A864209D2334600AA29462046FFF75F
:1076D0009AFE0028F3D1304676BDDFF8140976BD56
:1076E00070B58CB004460E461546304601F02EFAB1
:1076F00038B1304601F02AFA012804BF30782F282B
:107700000BD16078022802D100F07DF801E000F092
:1077100073F8A968FFF78DFF67E06078022802D14F
:1077200000F071F801E000F067F8A968FFF781FF49
:10773000002840D100E0761C30782F28FBD030782C
:1077400000284DD0314608A8FFF78AFF00208DF8A9
:10775000000000AA2946204600F063F818B900F09E
:1077600046F80028F5D100F042F838BB9DF80B0030
:10777000C00623D5607802289DF81A009DF81B10DA
:1077800040EA012007D19DF8141040EA01409DF81D
:10779000151040EA016028600020287168710123FB
:1077A000206B2968891E227D514300EB4102A968A4
:1077B000FFF73FFF58B14FF0FF3016E000F017F829
:1077C00028B99DF80B00C00601D40BE0761C307878
:1077D0002F2818BF0028F9D12F28B0D1761CAEE78A
:1077E000286808B9032000E000200CB070BD0B220F
:1077F00008A900A801F0C6B90020286028716871A6
:107800000123E26A7047E06A2860002028716871ED
:107810000123206BE16A891E227D514300EB410266
:10782000704770B582B005460C4616466079102840
:1078300044D3002060712079401C2071236843B933
:10784000C0B201012A8C914220D20123E96A421878
:107850002FE0297DC0B2884222D30020207140F65B
:10786000F770834201D3687868B14FF6F7708342AE
:1078700002D36878012806D0DFF87407834209D361
:107880006878022806D1207BC00701D4012076BD8C
:10789000052076BD00AAA1682846FFF7B4FD206048
:1078A0000123286B2168891E2A7D02FB01002179B2
:1078B0000A18A1682878FFF713FD76BD2022A16879
:1078C00001EB40113046FEF7D9F86079401C607139
:1078D0003078002818BFE52806D1207B00F0010190
:1078E000481E8041C00F76BDF17A01F00F010F29CB
:1078F00008BF002002D0052801D1E520307000200B
:1079000076BDF0B583B0044615461F46FFF7E8FE86
:1079100008B10320FEBD287B40F0010028733A46E1
:1079200029462046FFF77DFF060003D1387800285E
:10793000F5D1FEBD012847D0052845D1A9682046CC
:10794000FFF7B5FE0646DFF8A80686423CD04FF4A6
:107950000071A868FEF720FC00200190B71E0DE022
:107960004FF40072236B01FB0731019B5918490248
:1079700000F05CFF40BB0198401C0190217DA8688D
:10798000019A8A42ECD30021019100962B6801AA4A
:10799000014600F066F92E60002028710120687110
:1079A000607818B1022807D003D30DE040F6F876CE
:1079B00004E04FF6F87601E0DFF8386600962B68B1
:1079C00001AAA96800F04DF94FF0FF30FEBD2DE986
:1079D000F043A1B004460D4617469846289E1C2148
:1079E0003046FEF737F80EA8002100220B460EC0E5
:1079F00077724022294601F0F7F800208DF88300C5
:107A000011A9284601F026F930B104203AE00DF121
:107A1000450111A801F040F99DF844002F28F6D047
:107A200011A810F8011B0029FBD1451E0DF14409D6
:107A300002E02F2805D06D1EA9452878F9D32F28FC
:107A400000D16D1C29460EA8FFF70AFEA94538BFD4
:107A50006D1E28782F2819BF11A885420020287094
:107A6000CDF82C8009AA11A92046FFF739FE40B9AC
:107A700001AA09A92046FFF7D4FE012805D1B807BD
:107A80004FD4032021B0BDE8F0830B220EA901A83A
:107A900001F078F80028EBD19DF80F00C006F0D473
:107AA00034600020B0619DF82800099909B9E16AA5
:107AB00008E0216B099A921E237D5A43A38E5B0A2C
:107AC00003FB0211401870609DF82900401E3072BF
:107AD0009DF81E009DF81F1040EA012061780229E0
:107AE00007D19DF8181040EA01409DF8191040EAAE
:107AF00001607061F0609DF820009DF8211040EA5F
:107B000001209DF8221040EA01409DF8231040EA30
:107B100001603061707A022804BF03207072002077
:107B2000B0E701AB09AA11A92046FFF7EAFE002839
:107B300040F09480202101A8FDF78CFF0B220EA9B4
:107B400001A8FDF7ABFF0020ADF81200ADF814005E
:107B5000ADF81A00ADF81C0041462046FFF7A7FD1E
:107B60008DF81E00010A8DF81F10010C8DF81810F9
:107B7000010E8DF8191034600021B1619DF82810B4
:107B8000099A0AB9E26A08E0226B099B9B1E277DCD
:107B90007B43A78E7F0A07FB0322891871609DF83B
:107BA0002910491E31727061F0609DF80D004D285A
:107BB0000AD053280ED0552809D06D2804D0732838
:107BC00008D0752803D008E049F2766007E04FF44A
:107BD000085004E046F2280001E04FF400703061E4
:107BE0008DF820003069000A8DF821003069000C02
:107BF0008DF822003069000E8DF8230000203061DE
:107C0000012372684146FFF714FD38BB202201A909
:107C10009DF8290008EB40102038FDF72FFF4FF4A6
:107C2000007270684102404600F000FEB0B9607812
:107C300018B102280FD00BD310E040F6F8700021E5
:107C40000D91009073690DAA414600F00AF866E7AD
:107C50004FF6F870F3E7DFF89C03F0E74FF0FF30E2
:107C600010E7204648E42DE9F04F85B004468946E8
:107C700090469A4600272069A169401A0E9DA842A5
:107C800038BF0546CAF8007000E00027002D00F05C
:107C90008D80002F40F08A8000F08CF84FF4007245
:107CA000049901A801F01AF82068016B626900F0DC
:107CB000ADF901990F1800F08BF805EB080B20685F
:107CC00000780299D9B100F07EF8074600F080F8FC
:107CD0000298C0F50076B6B27042484400F50071D3
:107CE000B5420AD332464046FDF7C8FE0096B0447E
:107CF000A0693018A061AD1B24E02A4619E0B5F553
:107D0000007F11D301233A464146FFF7E9FA0746BF
:107D1000A5F5007508F50078A06900F50070A06170
:107D20004FF4007000900DE000F04DF807462A4631
:107D300049464046FDF7A2FED846A0692818A06132
:107D400000950025DAF8000000990818CAF800002C
:107D50002068017D808E00FB01F2A0690099411A24
:107D600001A800F0BBFF00F025F8019803998842B4
:107D70008CD00020009020684178636919B940F6E2
:107D8000F87293420AD2012903D14FF6F872934256
:107D900004D2022904D1DFF85C128B42BFF475AF24
:107DA00000AA4946FFF72FFB60616FE7384605B030
:107DB000BDE8F08F2068017D808E00FB01F2A16993
:107DC00003A800F08BBF01233A464946FFF788BA63
:107DD0004FF40072A16901A800F080BF2DE9F84FAF
:107DE00086B0054688469146109E0027687A02288C
:107DF000C0F0F78000211960A1E032464946FDF746
:107E00003DFE002F34D100F009F92EE0B6F5007FD9
:107E100017D34FF400725946484600F007FD074655
:107E2000A6F5007609F50079A86900F50070A8614B
:107E30002969814238BF014629614FF400700190E1
:107E400022E0A869296988420BD200F0F2F8070005
:107E50000ED1324649464046FDF710FE00F0DEF8EE
:107E600003E04FF400725946484600F0DFFC074635
:107E7000DDF80090A8693018A8612969814238BFEF
:107E800001462961019600260698006801990818A4
:107E9000069908602868017D808E00FB01F2A869C0
:107EA0000199411A04A800F019FF00F0A8F800F0A9
:107EB000A3F804980299884241D0002001906B6990
:107EC0001C4601AA41462868FFF79DFA01466961F0
:107ED000687A022833D1286842781AB940F6F873D4
:107EE00099420AD2012A03D14FF6F873994204D27B
:107EF000022A23D13F4A914220D34146FFF7D7FBC4
:107F00000746002001903A4887426AD000972346EE
:107F100001AA41462868FFF7EFFA6F6128684178A7
:107F200019B102295AD056D35BE040F6F87ACDF861
:107F300000A03B4601AA4146FFF7DEFA0027002ECB
:107F400052D0002F50D100F05AF804A800F0C6FE1D
:107F50004FF40072059900F04FF82868016B6A69C8
:107F600000F054F802990C1800F05DF806EB0900D7
:107F700000904FEA442B039800283FF447AF00F0ED
:107F800058F8074600F04FF803A8048804EB0800EF
:107F9000C4F5007A5645FFF430AF52464946FDF726
:107FA0006DFD27B900F03AF800F040FC0746CDF827
:107FB00004A06042484400F50079A86900F500700B
:107FC000001BA8612969814238BF01462961A4F5D7
:107FD0000070861958E74FF6F87AA8E7DFF814A082
:107FE000A5E74FF0FF3000E0384607B0BDE8F08F5E
:107FF000F7FFFF0FF8FFFF0F02A800F06FBE286821
:10800000017D808E00FB01F2A9697047921E037DFD
:108010005A43808E400A00FB021070474FF40072F2
:108020005946404670474FF40072A96902A800F013
:1080300055BE01232246414628680078FFF750B913
:108040002DE9F05FE6B04FF0000200F5617AB1F87B
:1080500044B0B1F846C0DC44002A04BF00F029FA5D
:108060002BE0B2F5977F04BF00F023FA25E0012A48
:1080700004BF00F041FA20E040F22D139A4204BF01
:1080800000F03AFA19E0A2F101034FF01906B3FB30
:10809000F6F505FB06F55D1B04BF00F022FA0CE0C7
:1080A0004FF00506B3FBF6F505FB06F55D1B04BFB7
:1080B00000F00CFA01E000F0FFF9032A27D3B2F533
:1080C000967F24D2CB8813F0040F01BF2E234C8B54
:1080D0004FF0080800F0B6F88B8813F0040F01BFCA
:1080E0002C230C8B4FF0040800F0ACF84B8813F0F5
:1080F000040F02BF2A2300F5967400F0C0F80B8825
:1081000013F0040F02BF2823041C00F0B8F8002A63
:1081100004BF00F068F91EE0B2F5977F04BF00F0DD
:1081200062F918E0012A04BF00F080F913E040F280
:108130002D15AA4204BF00F079F90CE0022A04BF11
:1081400000F093F907E0B2F5967F08BF00F08DF9D3
:1081500001D000F02BF900F0CAF8B1F84C3013F060
:10816000010F05D15A4503DB6245B8BF00F00AF89C
:1081700000F0CEF9B2F5977F1CBF521C6CE766B0D9
:10818000BDE8F09F4FF00117B1F84850B1F84A60D0
:108190000BF100039A4202BFAD1D0C3E4FF00817D1
:1081A0000BF101039A4202BF2D1D083E4FF0041748
:1081B0000BF102039A4202BFAD1C361F4FF00217AB
:1081C000ACF103039A4202BFAD1C361F4FF00217F9
:1081D000ACF102039A4202BF2D1D083E4FF0041776
:1081E000ACF101039A4202BFAD1D0C3E4FF00817DF
:1081F0000DEB0504B1F84E80B1F850903AF8023B0F
:10820000B8F1000F0FD03B4214BF24F8029B24F8B2
:10821000028BB61E08BF70477F0024BF3AF8023BAE
:108220004FF00117EFE73B4214BF24F8029BA41C58
:10823000B61E08BF70477F0024BF3AF8023B4FF0DC
:108240000117F0E700F5167717443D7817F8016C31
:108250004FEA540415EA08050CBF254604F11E0533
:1082600016EA08060CBF24461E340CE01444257898
:1082700014F8014C05F1320504F1320403E0144412
:10828000257814F8014CFF2D08BF7047002D08BF5A
:108290007047FF2D08BF7047002D08BF7047A542EB
:1082A00027BF26462D1B2E46651BC72EC8BF70470D
:1082B00005EB0604C72CC8BFC6F1C7050BDC032CB1
:1082C000B8BF7047032EBCBF0326E51E03DB002D9D
:1082D00004BF761EAD1C142DA8BF1433CB5A4FEA31
:1082E00046066E4426F8023B6D1EFBD270474FF0E7
:1082F00007036C4631F8135015F0010F00D050E021
:1083000001F1140131F8135001F1140131F8136037
:10831000A1F12801A5F10208424504D1268004F507
:10832000CA7426803DE008F10108424508D124F8CE
:10833000026B268004F5C87424F8026B268030E0B6
:1083400008F10108424517D124F8026B24F8026BAA
:10835000268064AC24F8026B24F8026B268031F886
:10836000135015F0020F07D16C4604F5C87724F8B6
:10837000086BA742FBD214E008F10108424508D17E
:1083800024F8026B268004F5C87424F8026B26805A
:1083900007E008F10108424503D1268004F5CA74BC
:1083A000268003F101030A2BA3D170474FF0060387
:1083B0006C4631F8135015F0020F11D1A2F10105EE
:1083C00015F003050CD101F1140131F813500DEB38
:1083D000050401F1140131F813602680A1F1280190
:1083E000013BE6D570474FF006036C4631F8135059
:1083F00015F0010F17D101F1140131F813500DEBF5
:10840000050401F1140131F81360A4F1040424F807
:10841000026B24F8026B24F8026B24F8026B24F838
:10842000026BA1F12801013BE0D570474FF0060334
:108430006C4631F8135015F0010F13D101F11401FE
:1084400031F813500DEB050401F1140131F81360FC
:10845000A4F1020424F8026B24F8026B24F8026BE6
:10846000A1F12801013BE4D570474FF006036C46AB
:1084700031F8135015F0010F0CD101F1140131F84E
:1084800013500DEB050401F1140131F8136026803F
:10849000A1F12801013BEBD570476C464FF0660512
:1084A00044F8043B013DFBD10DF1020447F6EF33E4
:1084B00070474FF00003F0E776464FF00003FFF7F8
:1084C000ECFF4FF4C87563532380304776464FF076
:1084D0000003FFF7E2FF4FF4E175323D6353FCD137
:1084E000304776464FF00003FFF7D7FF4FF4CD75C6
:1084F0000A3D6353FCD1304776460B4BFFF7CDFF67
:108500004FF000034FF4C975635324F8023C304721
:108510006D460FB510001321FDF712FE4FF0CB0191
:108520002846FDF71BFE0FBDEF7BEF7BDFF8C81081
:108530000A6802F03802FFE70A600A681043086020
:1085400070472D490A6822F01002F5E72B482C49A4
:1085500001602C49016070472B48016841F080019F
:108560000160704770B5054640F6FF76304600F072
:108570004FF8042813D1244C206840F002002060FA
:108580006560206840F040002060304600F040F810
:10859000012804D0216841F6FD721140216070BDB0
:1085A00070B504460D4600F013F804280ED1164E9F
:1085B000306840F001003060258000F009F80128A3
:1085C00004D0316841F6FE721140316070BD2E80DA
:1085D0000F201DE004200D490A68D20701D50120B3
:1085E00070470A68520701D5022070470968C9061A
:1085F00048BF0320704700000020024004200240D2
:1086000023016745AB89EFCD102002400C200240CA
:1086100010B582B00446FFF7DDFF08E00098401E69
:10862000009000980028F9D1FFF7D4FF641E0128BC
:1086300004D124B100200090FF20F1E704B9052007
:1086400016BD0000F8B504460025554E554F0221D1
:10865000384600F070FB20B92846451CB042F6D3DE
:108660000DE02146384600F062FB00250121384626
:1086700000F061FB28B92846451CB042F6D3FF2024
:10868000F2BD384600F055FBC0B2F2BD2DE9F8430B
:1086900080460F464FF48079022600F097FB002FAA
:1086A00036D43F0A3F020024042207EB840100A8CD
:1086B00000F030F8009858F82410C943084218BF59
:1086C0000A26641C402CEFDB374C4FF48055656064
:1086D0000620FFF7B7FF256065603046FFF7B2FF61
:1086E00000F046F8380400F044F8002003E018F8E1
:1086F000010BC043C0B2FFF7A5FF4846A0F1010936
:1087000080B20028F3D1256000F035F800F060FB5E
:10871000BDE8F1832DE9F04180460F46164600F092
:1087200055FB214C4FF48055002F03D4256000F0F9
:1087300022F865600320FFF785FF00F019F8380480
:1087400000F017F8F8B2FFF77DFF05E0A520FFF76E
:1087500079FFC04308F8010B3046461E80B200285E
:10876000F4D1002F58BF2560BDE8F04100F030BBC8
:108770003802000E66E770B500240B4D4FF48056AA
:108780006E600520FFF75EFFA520FFF75BFF214627
:108790004C1C034A914202D2C007F5D42E6070BD32
:1087A000A186010000380040100C0140704710B550
:1087B000DFF880034FF4805101600A24FF2000F0AD
:1087C00008F8641EFAD100F08EF9BDE8104000F000
:1087D00015BB38B50446DFF860530221284600F087
:1087E000AAFA0028F9D02146284600F0A0FA8021F4
:1087F000284600F0A0FA0028F9D031BD10B5DFF806
:1088000038430221204600F096FA0028F9D0FF21D3
:10881000204600F08CFA0121204600F08CFA002856
:10882000F9D0204600F085FAC0B210BD2DE9F0471E
:1088300000F041F8FF224946182000F014F900F03A
:10884000FEF8A8B900F0FFF8FE20FFF7C2FF04E031
:1088500018F8010BFFF7BDFF7F1C5745F8D3FFF752
:10886000CDFFFFF7CBFF00F019F9052808BF002462
:108870001BE02DE9F04700F01EF8FF2249461120C9
:1088800000F0F1F800F0DBF878B900F0D5F860B945
:1088900004E0FFF7B3FF08F8010B7F1C5745F8D33E
:1088A000FFF7ACFFFFF7AAFF00242E6000F0CBF823
:1088B0002046BDE8F0878046894692460027FF247F
:1088C000DFF870524FF480566E606FE72DE9F04389
:1088D00085B000F0BEF8FF223946092000F0C3F849
:1088E00000F0ACF870B900F0A7F828B9FFF786FFE0
:1088F00078557F1C102FF9D300F0A5F83046FFF70C
:1089000068FF002600F09DF89DF8000080092070A7
:108910009DF80000C0F3830060709DF8000000F037
:108920000300A0706878E070A8782071E878607122
:1089300028790001E0806879E18851EA1011E1802E
:1089400000F00F002072A879C1096172C0F3801194
:10895000A172C0F34011E172C0F300112173002134
:10896000617300F003008002E081E089E97940EA68
:108970008100E081287AE18951EA9011E181C0F318
:10898000C201217400F007006074687A4109A17483
:10899000C0F38201E17400F0030040002075A87A62
:1089A000217D41EAD0112175C0F38401617500F089
:1089B0000300C000A075E87AA17D41EA5011A175BD
:1089C00000F01F00E075287BC1092176C0F341113A
:1089D0006176C0F38201A17600F003008000E076AA
:1089E000687BE17E41EA9011E176C0F34011217786
:1089F0000021617700F00100A077A87BC109E17731
:108A0000C0F3801184F82010C0F3401184F82110C5
:108A1000C0F3001184F82210C0F3810184F8231000
:108A200000F0030084F82400E87B400884F8250067
:108A3000012084F8260008E0FE2044E000AD38461E
:108A400041E0C8F80090FF20C3E6304605B0BDE81D
:108A5000F08304460027FF26DFF8D8804FF48059C2
:108A6000C8F80490A2E630B583B0002440F040007E
:108A70008DF8000000AD080E6870080C8DF802003B
:108A8000080A8DF803008DF804108DF80520605D4C
:108A9000FFF79FFE641C062CF9D337BD38B541247F
:108AA000FFF7ACFE00F01F052846052D05D00B2D65
:108AB00018BF0D2D06D0641EF2D1FFF79FFE0028CF
:108AC000FBD0284632BD38B5044640F6FF7501E0BC
:108AD0002DB16D1EFFF792FEA042F9D10DB9FF2016
:108AE00032BD002032BD38B500F01EF895220021BD
:108AF0000020FFF7B8FF0120FFF7E5FF08B1FF20D6
:108B000032BD2560FFF79FFF6560FF220021012035
:108B1000FFF7A9FF0020FFF7D6FF0028F1D125605D
:108B2000FFF791FF002032BD024C4FF48055656085
:108B30003CE60000100C01400038004091FBF2F3CD
:108B400003FB1211C0E900317047000000F101037E
:108B5000810704D010F8011B89B18107FAD102689E
:108B6000B2F10131914311F0803F04BF50F8042F5E
:108B7000F6E710F8011B11B110F8011BFBE7C01A52
:108B8000704700000300002013F0030F09D0521EAD
:108B900022BF13F8010B11F801CBB0EB0C00F3D09E
:108BA0007047121F22BF53F8040B51F804CB6045E5
:108BB000F7D0121D0AD200BA9CFA8CFCB0EB0C0064
:108BC00038BF6FF0000088BF01207047521E22BFDF
:108BD00013F8010B11F801CBB0EB0C00F6D0521CCE
:108BE00008BF10467047000001B58B0718D1121F4F
:108BF00021D351F8043BA3F1013C2CEA030C1CF0F7
:108C0000803C04BF40F8043BF1E79CFA8CFCBCFAC2
:108C10008CF1C1F118018B40CB4040F8043B13E0CC
:108C2000042A09D311F8013B521E00F8013B5BB145
:108C30008B07F7D1DBE7121D5AB111F8013B521E29
:108C400000F8013B03B1F8D111001CBF0022FDF771
:108C5000ADFA01BD820707D010F8012B11F8013BD6
:108C6000BAB19A42F6D014E002680B689A42A2F1B7
:108C7000013301BF934313F0803F50F8042F51F8A4
:108C8000043FF3D010F8012B11F8013B0AB19A42CE
:108C9000F8D0D01A704700005FEA000C830706D0B6
:108CA00011F8013B00F8013BB3B18307F8D10A6822
:108CB000B2F1013323EA020313F0803F02BF40F810
:108CC000042B51F8042FF3E711F8013B00F8013BA6
:108CD00013B111F8013BF9E76046704791FBF2F3DD
:108CE00003FB1211C0E9003170470000028802F452
:108CF00041520B881A434B881A438B881A43CB88FE
:108D00001A430B891A434B891A438B891A43CB891F
:108D10001A430280098A018270470029018812BF24
:108D200041F040014FF6BF721140018070478181D0
:108D300070478089704700220089084218BF0122CD
:108D400010467047284908432849086070472DE9B4
:108D5000F04105780121C2787AB3244A126802F4FE
:108D6000E062C2F5E062120A25F003031D4C1F59B0
:108D700005F00305ED00FF26AE40B74390F801C0B3
:108D8000C2F1040E0CFA0EFC90F802E04FF00F084E
:108D900028FA02F202EA0E0242EA0C021201AA408A
:108DA00032403A431A5100784211114B00F01F0033
:108DB00001FA00F043F8220006E06811084A05F0C5
:108DC0001F03994042F82010BDE8F08100F01BB964
:108DD00000F017B9074A1140084307490860704777
:108DE00080E100E000E400E00000FA050CED00E0A6
:108DF00000E100E080FFFF1F08ED00E010B5674CC8
:108E00002046FFF763FDE0890121401C227D921C72
:108E100001FA02F25043206394F908209140E16284
:108E20004843A06210BD38B55D4D5C4CE06B78B92D
:108E30004FF40072616B2846FFF71BFD402298211A
:108E4000284600F0F6F84FF4E070E06340200AE0B6
:108E500040229821206C401900F0EBF8E06B40387C
:108E6000E063206C403020644021012000F082F952
:108E70003021012000F011F9606B40306063A06B7D
:108E80004038A06347498A68403A8A6028B9E0635D
:108E90002064606344480321017031BD70B53F4CCC
:108EA000606C00F140010020A0643D483F4A08E0AA
:108EB000A36C656C9E5C2E545B1CA364636C5B1C92
:108EC0006364636C8B42F3D3394D2988626B8A18D3
:108ED0006263A26B511AA163C90508D100216164C4
:108EE0004FF40072616BA1F50071FFF79FFC2D48F4
:108EF00081682A88891A81604FF44051022000F06D
:108F0000DDF8A06B00281EBF27480078042806D192
:108F1000002060640121BDE8704000F0B6BA70BD69
:108F20001CB524494A7C8B7C1B0443EA0262CB7C3F
:108F300042EA03220B7D1A4301928A7DCB7D43EAEC
:108F400002220092154AD36A019C5C435463009C40
:108F500063439363946A526B9A18944209D22A2805
:108F600004BF022000F0B8FA002000F0B5FA212179
:108F700009E0896899420FD02A280CBF02200020FE
:108F800000F0AAFA2421052000F01DFB0021012099
:108F900000F07BFA002016BD012016BD004700201E
:108FA00000450020E0470020F04700204C4700200B
:108FB000AE4700208C47002030BF704720BF70476D
:108FC00040BF7047BFF36F8F7047BFF34F8F70473D
:108FD000BFF35F8F704701DF7047EFF31480704776
:108FE00080F31488BFF36F8F7047EFF309807047E9
:108FF00080F309887047EFF30880704780F3088892
:10900000704762B6704772B67047EFF310807047D2
:1090100061B6704771B67047EFF31380704780F305
:1090200011887047EFF31280704740BA704700BA5A
:10903000704710B5490001F1804101F5C041521C53
:10904000521009E010F8013B10F8014B43EA0423E9
:1090500021F8023B891C521EF4D110BD490001F1D8
:10906000804101F5C041521C521004E051F8043B0C
:1090700020F8023B521EF9D1704700004FF6F871FC
:109080000840DFF878110860704710B5DFF87021EC
:1090900052F8203048F68F1457E010B5DFF8602101
:1090A00052F8203048F6BF742340CC0648BF83F006
:1090B0001003890648BF83F020030FE010B5DFF8E6
:1090C000402152F820304BF68F742340CC0448BF27
:1090D00083F48053890448BF83F4005342F820305E
:1090E00010BDDFF81C1151F820204BF68F731A4089
:1090F00082F4405207E0DFF8081151F8202048F6CA
:109100008F63FFE71A4041F820207047DFF8F01026
:1091100051F82020520408D551F8202048F68F73CA
:109120001A4042F4804241F820207047344951F8F7
:109130002020520608D551F8202048F68F731A4097
:1091400042F0400241F8202070472340194342F882
:10915000201010BD38E0294A126892B202EBC0001C
:10916000284A37E03BE02549096889B201EBC00095
:1091700024493AE0214A126892B202EBC000224A26
:109180002AE01E4A126892B202EBC0001F4A02EBAC
:1091900040003F2909D34A091F23194208BF521E24
:1091A0001204910941F4004105E04A08C90748BF8B
:1091B000521C12049109016070471049096889B274
:1091C00001EBC000114914E00C4A126892B202EBA4
:1091D000C0000F4A4908490042F81010704707497B
:1091E000096889B201EBC000094951F8100080B24A
:1091F000704751F810008005800D7047505C0040AA
:10920000005C004008600040046000400C600040CA
:10921000006000400106090C41EA10207047000080
:1092200080B5A748017C022908D020D3042902D0A8
:1092300016D305291BD10021017415E0A148C17B7B
:10924000282914D190F82010012904BFBDE801405D
:1092500000F050BA816A406ABDE8044000F0B8B935
:109260000121002000F011F94FF4405146E101BD09
:1092700038B5944CE57B0220FFF79FFF60840246DF
:10928000D8219148FFF7EAFE8D48007C10B10128F3
:1092900003D012E0BDE831401BE02A2D0ED194F836
:1092A0002000012804BFBDE8314000F045BAA16AA2
:1092B000606ABDE8344000F0B0B9022000F00CF95B
:1092C0002421052000F07FF900210220BDE8344070
:1092D000DBE010B57B4C628C1AB17B492046FCF771
:1092E000DDFB774861684160A1688160608C1F2860
:1092F00006D0022000F0F0F8002020601A21A5E03E
:10930000E27B94F82030012B13D0282A18BF2A2A98
:109310000FD1607CA17C090441EA0060E17C40EA55
:109320000120217D08436062A07DE17D41EA0020AB
:10933000A06220686549884245D1607B012B01D13C
:1093400048B903E062490968814204D3A07B401E0A
:10935000C0B2102804D3022000F0BEF8242175E02A
:10936000606AA16A002A4BD0032A2DD0042A63D058
:10937000082A18BF0A2A61D0122A29D0152A5DD0DE
:109380001A2A2DD01B2A27D01D2A57D01E2A23D0B7
:10939000232A2DD0252A2FD0282A35D02A2A3DD07D
:1093A0002F2A45D0552A49D05A2A1DD0882A18BFBD
:1093B0008A2A43D08F2A18BF9E2A3FD0A82A1CBFD2
:1093C000AA2AAF2A3AD03DE0BDE8104000F0F3B839
:1093D000BDE8104000F0D8B8BDE8104000F0F7B884
:1093E000BDE8104000F0DFB8BDE8104000F0DFB885
:1093F000BDE8104000F088B8BDE8104000F0A0B80B
:10940000BDE8104000F03AB9012B04BFBDE81040A0
:1094100000F070B9BDE8104000F0DAB8012B04BFCD
:10942000BDE8104000F088B9BDE8104000F0F5B884
:10943000BDE8104000F007B9012B03D1BDE8104092
:1094400000F021B9022000F047F82021052000F0AB
:10945000BAF800210120BDE8104016E010B50C4616
:1094600022469821FFF7E5FD21460120FFF782FE05
:1094700030210120FFF711FE11480321017481689A
:10948000091B81600021017310BD38B50C460C4DDD
:109490001049296028730D2298212846FFF7C9FD3D
:1094A0000D210120FFF766FE052028743CB1042041
:1094B000287430210120BDE83440FFF7EEBD31BDF6
:1094C000E04700208C4700204C4700205553424382
:1094D000284800205553425380B518B1022807D0C0
:1094E0000AD301BD10210120BDE80440FFF7D5BD1E
:1094F00010210120FFF7D1FD4FF480510220BDE87B
:109500000440FFF7DBBD000095480078012804D136
:10951000944801689448026802E04FF400710A46DA
:1095200092480B0E03710B0C43710B0A8371C171CE
:10953000110C4172110A8172C2720C21FFF78EBFA9
:1095400010B587480078012804D18648016886480C
:10955000026803E04FF480514FF400724B1E8448C0
:109560001C0E04701C0C44701B0A8370491EC170D1
:10957000110E0171110C4171110A8171C271082122
:10958000BDE81040FFF76ABF7A49087CC00702D5E2
:109590007948052105E00FF21C20C97C192928BF54
:1095A0001821FFF75BBF04217448FFF757BF08215C
:1095B0007348FFF753BF6F48C17C132928BF12219E
:1095C0007048FFF74BBF6F4A90701173704756E0B9
:1095D00070B504460D466C4E3078B0B92A46214627
:1095E000282000F062F8B8B100F09FF803D50220FF
:1095F000307029460BE000F03EF800F09AF80121A7
:109600000120BDE87040FFF740BF022804D120468A
:10961000BDE8704000F0EBB870BD10B55A4C227830
:1096200052B90A4601462A2000F03FF850B100F036
:109630007CF800D4AAE0B2E0012A04BFBDE81040E3
:1096400000F023B910BD80B54A48816829B9007C73
:10965000400702D40121002005E000F00CF800F0E2
:1096600068F800210120FFE7BDE80440FFF70DBFC7
:1096700020210520A7E70220FFF72EBF00BF012110
:109680000020FFF702BF80B53A48816809B9002081
:1096900004E0007B00064CBF00200220FFF71CFF07
:1096A000FFF7E6FF00210120DEE780B55118B1F594
:1096B000805F09D92A2804BF0220FFF70DFF002090
:1096C000FFF70AFF21210BE02A498968B1EB422FFD
:1096D0000ED02A280CBF02200020FFF7FDFE242117
:1096E000FFF7C7FF00210120FFF7CFFE002002BDDA
:1096F000012002BD10B5244C207878B92820FFF74E
:109700000FFC88B100F011F802D50220207007E0AC
:10971000FFF7B1FF00F00DF8012146E0022803D168
:10972000BDE81040FFF77FBB10BD1248007B00066C
:1097300070472421052046E710B5134C207840B926
:109740002A20FFF7EDFB50B1FFF7EFFF00D41DE03B
:1097500025E0012804BFBDE81040FFF79FBB10BD06
:10976000AC470020304700202C470020780E002016
:10977000204800208C47002018480020B40E00200C
:10978000A00E0020640E0020F04700200120207071
:109790004FF440510220BDE81040FFF78FBC00207D
:1097A000FFF79AFEFFF7C5FF00210120BDE810403A
:1097B000FFF76BBE00800202200000004D696E6959
:1097C0002044534F4469736B2020202038B5044651
:1097D0000D46FEF75BFF05F5807104F58070BDE86E
:1097E0003440FEF753BF4FF40072FEF793BF10B53D
:1097F0004D4C626813782BB94002E060480220614A
:109800000120107060680078012830D1A0682168BC
:10981000896969B9E168FFF7E6FF40229821A068ED
:10982000FFF707FC20684FF4E071816140200BE0F6
:109830004022982163691818FFF7FBFB20688169B3
:109840004039816160694030606140210120FFF74B
:1098500091FC30210120FFF720FCE0684030E060FF
:109860002069403820613148816840398160206931
:1098700050B92068002181616161E1602C480321B9
:10988000017060680021017010BD70B5264C22681F
:10989000D269403263681D782DB94002A061480248
:1098A000E0610120187060680078012829D100204B
:1098B000204907E0A568465C5E55401C2368DD69C9
:1098C0006D1CDD612668F3699342F3D31A4D288835
:1098D000A1694118A161E269101AE061C00506D1D1
:1098E0000020F061A1F50071A068FFF76FFF0F483D
:1098F00081682A88891A81604FF440510220FFF75D
:10990000DDFBE06900281EBF09480078042809D162
:1099100020680021C16101210020FFF7B6FD6068C9
:109920000021017070BD0000B40D0020E047002050
:10993000F04700204C470020AE47002084B00020B4
:109940008DF8040000F0FAFB00F044FC00F076FC17
:1099500000F04AFD00F05BFD00F0F6FC00F0D6FDE3
:1099600000F092FC4FF6FF740620FCF7F1FB007844
:10997000322807BF0021204621460020FBF75DFD6D
:109980000FF2247300225A210820FBF792FE0FF2F7
:109990004073002246210820FBF78BFEFDF7D7F924
:1099A0004FF49672DFF89816DFF89806FCF766F821
:1099B000DFF89406007840F00800DFF88C16087095
:1099C000DFF888060078800702D500F09AFF03E0F0
:1099D0004FF47A70FCF74BF947F6EF30FCF7AEFB2B
:1099E000FAF7A6FBDFF868060068B8B90520FCF7AF
:1099F000AFFB0522014602A8FCF740F802A8417817
:109A00006422C3780A24634302FB013100794018C1
:109A1000DFF840160818B0F5967F42D3FCF77AFBC2
:109A200000283ED0DFF82006007800F0F700DFF8CD
:109A30001816087035E0BCF1260F0ED133F810105F
:109A4000DFF81426B2F94C209142BCBF491C23F820
:109A500010100099098BFCF77CF9DFF800060078FC
:109A6000022807D1DFF8F805007800F0FE00DFF8E3
:109A7000F0150870DFF8E4050078405D04EBC000E5
:109A8000817941F020018171DFF8BC050078800701
:109A900048BFFAF77FFBFAF74BFBDFF8C805002158
:109AA0000170DFF8A405007800F00E00082808BF58
:109AB000FBF733FEFAF7E6FEFAF792FC00F036FD0C
:109AC000DFF8A415DFF8A405FEF7BAFADFF8A04521
:109AD00004F22606DFF89C55B5F9000080B1F0824B
